{
  "_format": "hh-sol-artifact-1",
  "contractName": "A",
  "sourceName": "contracts/Task.sol",
  "abi": [
    {
      "inputs": [],
      "name": "getter",
      "outputs": [
        {
          "internalType": "uint256",
          "name": "",
          "type": "uint256"
        }
      ],
      "stateMutability": "view",
      "type": "function"
    },
    {
      "inputs": [
        {
          "internalType": "uint256",
          "name": "_val",
          "type": "uint256"
        }
      ],
      "name": "initialvalue",
      "outputs": [],
      "stateMutability": "nonpayable",
      "type": "function"
    },
    {
      "inputs": [
        {
          "internalType": "uint256",
          "name": "_val",
          "type": "uint256"
        }
      ],
      "name": "setter",
      "outputs": [],
      "stateMutability": "nonpayable",
      "type": "function"
    }
  ],
  "bytecode": "0x608060405234801561001057600080fd5b506101f1806100206000396000f3fe608060405234801561001057600080fd5b50600436106100415760003560e01c8063993a04b714610046578063b353bf4c14610064578063d423740b14610080575b600080fd5b61004e61009c565b60405161005b91906100df565b60405180910390f35b61007e6004803603810190610079919061012b565b6100a5565b005b61009a6004803603810190610095919061012b565b6100af565b005b60008054905090565b8060008190555050565b806000546100bd9190610187565b60008190555050565b6000819050919050565b6100d9816100c6565b82525050565b60006020820190506100f460008301846100d0565b92915050565b600080fd5b610108816100c6565b811461011357600080fd5b50565b600081359050610125816100ff565b92915050565b600060208284031215610141576101406100fa565b5b600061014f84828501610116565b91505092915050565b7f4e487b7100000000000000000000000000000000000000000000000000000000600052601160045260246000fd5b6000610192826100c6565b915061019d836100c6565b92508282019050808211156101b5576101b4610158565b5b9291505056fea2646970667358221220bbdc72dbc5aab6a1d4fb53e7875067c82860b1c537e1e9b3986406242b5d1add64736f6c63430008130033",
  "linkReferences": {},
  "deployedLinkReferences": {}
}