{
  "_format": "hh-sol-artifact-1",
  "contractName": "A2",
  "sourceName": "contracts/Task2.sol",
  "abi": [
    {
      "inputs": [],
      "name": "getter",
      "outputs": [
        {
          "internalType": "uint256",
          "name": "",
          "type": "uint256"
        }
      ],
      "stateMutability": "view",
      "type": "function"
    },
    {
      "inputs": [
        {
          "internalType": "uint256",
          "name": "_val",
          "type": "uint256"
        }
      ],
      "name": "initialvalue",
      "outputs": [],
      "stateMutability": "nonpayable",
      "type": "function"
    },
    {
      "inputs": [],
      "name": "newInput",
      "outputs": [
        {
          "internalType": "uint256",
          "name": "myIntA",
          "type": "uint256"
        },
        {
          "internalType": "uint256",
          "name": "myIntB",
          "type": "uint256"
        }
      ],
      "stateMutability": "view",
      "type": "function"
    },
    {
      "inputs": [
        {
          "internalType": "uint256",
          "name": "inputA",
          "type": "uint256"
        },
        {
          "internalType": "uint256",
          "name": "inputB",
          "type": "uint256"
        }
      ],
      "name": "setter",
      "outputs": [],
      "stateMutability": "nonpayable",
      "type": "function"
    }
  ],
  "bytecode": "0x608060405234801561001057600080fd5b506102c6806100206000396000f3fe608060405234801561001057600080fd5b506004361061004c5760003560e01c80635298f36d14610051578063993a04b71461006d578063b353bf4c1461008b578063f9ad0dcc146100a7575b600080fd5b61006b6004803603810190610066919061016d565b6100c6565b005b610075610101565b60405161008291906101bc565b60405180910390f35b6100a560048036038101906100a091906101d7565b61010a565b005b6100af610120565b6040516100bd929190610204565b60405180910390f35b81600160000160008282546100db919061025c565b92505081905550806001800160008282546100f6919061025c565b925050819055505050565b60008054905090565b8060008190555060005460016000018190555050565b60018060000154908060010154905082565b600080fd5b6000819050919050565b61014a81610137565b811461015557600080fd5b50565b60008135905061016781610141565b92915050565b6000806040838503121561018457610183610132565b5b600061019285828601610158565b92505060206101a385828601610158565b9150509250929050565b6101b681610137565b82525050565b60006020820190506101d160008301846101ad565b92915050565b6000602082840312156101ed576101ec610132565b5b60006101fb84828501610158565b91505092915050565b600060408201905061021960008301856101ad565b61022660208301846101ad565b9392505050565b7f4e487b7100000000000000000000000000000000000000000000000000000000600052601160045260246000fd5b600061026782610137565b915061027283610137565b925082820190508082111561028a5761028961022d565b5b9291505056fea2646970667358221220c220e14f622484656cab06f783ea19da3f0f29529b4f9f4c9b69f5541f31447364736f6c63430008130033",
  "linkReferences": {},
  "deployedLinkReferences": {}
}