{"contracts/Task2.sol":{"A2":{"abi":[{"inputs":[],"name":"getter","outputs":[{"internalType":"uint256","name":"","type":"uint256"}],"stateMutability":"view","type":"function"},{"inputs":[{"internalType":"uint256","name":"_val","type":"uint256"}],"name":"initialvalue","outputs":[],"stateMutability":"nonpayable","type":"function"},{"inputs":[],"name":"newInput","outputs":[{"internalType":"uint256","name":"myIntA","type":"uint256"},{"internalType":"uint256","name":"myIntB","type":"uint256"}],"stateMutability":"view","type":"function"},{"inputs":[{"internalType":"uint256","name":"inputA","type":"uint256"},{"internalType":"uint256","name":"inputB","type":"uint256"}],"name":"setter","outputs":[],"stateMutability":"nonpayable","type":"function"}],"evm":{"bytecode":{"linkReferences":{},"object":"608060405234801561001057600080fd5b506102c6806100206000396000f3fe608060405234801561001057600080fd5b506004361061004c5760003560e01c80635298f36d14610051578063993a04b71461006d578063b353bf4c1461008b578063f9ad0dcc146100a7575b600080fd5b61006b6004803603810190610066919061016d565b6100c6565b005b610075610101565b60405161008291906101bc565b60405180910390f35b6100a560048036038101906100a091906101d7565b61010a565b005b6100af610120565b6040516100bd929190610204565b60405180910390f35b81600160000160008282546100db919061025c565b92505081905550806001800160008282546100f6919061025c565b925050819055505050565b60008054905090565b8060008190555060005460016000018190555050565b60018060000154908060010154905082565b600080fd5b6000819050919050565b61014a81610137565b811461015557600080fd5b50565b60008135905061016781610141565b92915050565b6000806040838503121561018457610183610132565b5b600061019285828601610158565b92505060206101a385828601610158565b9150509250929050565b6101b681610137565b82525050565b60006020820190506101d160008301846101ad565b92915050565b6000602082840312156101ed576101ec610132565b5b60006101fb84828501610158565b91505092915050565b600060408201905061021960008301856101ad565b61022660208301846101ad565b9392505050565b7f4e487b7100000000000000000000000000000000000000000000000000000000600052601160045260246000fd5b600061026782610137565b915061027283610137565b925082820190508082111561028a5761028961022d565b5b9291505056fea2646970667358221220c220e14f622484656cab06f783ea19da3f0f29529b4f9f4c9b69f5541f31447364736f6c63430008130033","opcodes":"PUSH1 0x80 PUSH1 0x40 MSTORE CALLVALUE DUP1 ISZERO PUSH2 0x10 JUMPI PUSH1 0x0 DUP1 REVERT JUMPDEST POP PUSH2 0x2C6 DUP1 PUSH2 0x20 PUSH1 0x0 CODECOPY PUSH1 0x0 RETURN INVALID PUSH1 0x80 PUSH1 0x40 MSTORE CALLVALUE DUP1 ISZERO PUSH2 0x10 JUMPI PUSH1 0x0 DUP1 REVERT JUMPDEST POP PUSH1 0x4 CALLDATASIZE LT PUSH2 0x4C JUMPI PUSH1 0x0 CALLDATALOAD PUSH1 0xE0 SHR DUP1 PUSH4 0x5298F36D EQ PUSH2 0x51 JUMPI DUP1 PUSH4 0x993A04B7 EQ PUSH2 0x6D JUMPI DUP1 PUSH4 0xB353BF4C EQ PUSH2 0x8B JUMPI DUP1 PUSH4 0xF9AD0DCC EQ PUSH2 0xA7 JUMPI JUMPDEST PUSH1 0x0 DUP1 REVERT JUMPDEST PUSH2 0x6B PUSH1 0x4 DUP1 CALLDATASIZE SUB DUP2 ADD SWAP1 PUSH2 0x66 SWAP2 SWAP1 PUSH2 0x16D JUMP JUMPDEST PUSH2 0xC6 JUMP JUMPDEST STOP JUMPDEST PUSH2 0x75 PUSH2 0x101 JUMP JUMPDEST PUSH1 0x40 MLOAD PUSH2 0x82 SWAP2 SWAP1 PUSH2 0x1BC JUMP JUMPDEST PUSH1 0x40 MLOAD DUP1 SWAP2 SUB SWAP1 RETURN JUMPDEST PUSH2 0xA5 PUSH1 0x4 DUP1 CALLDATASIZE SUB DUP2 ADD SWAP1 PUSH2 0xA0 SWAP2 SWAP1 PUSH2 0x1D7 JUMP JUMPDEST PUSH2 0x10A JUMP JUMPDEST STOP JUMPDEST PUSH2 0xAF PUSH2 0x120 JUMP JUMPDEST PUSH1 0x40 MLOAD PUSH2 0xBD SWAP3 SWAP2 SWAP1 PUSH2 0x204 JUMP JUMPDEST PUSH1 0x40 MLOAD DUP1 SWAP2 SUB SWAP1 RETURN JUMPDEST DUP2 PUSH1 0x1 PUSH1 0x0 ADD PUSH1 0x0 DUP3 DUP3 SLOAD PUSH2 0xDB SWAP2 SWAP1 PUSH2 0x25C JUMP JUMPDEST SWAP3 POP POP DUP2 SWAP1 SSTORE POP DUP1 PUSH1 0x1 DUP1 ADD PUSH1 0x0 DUP3 DUP3 SLOAD PUSH2 0xF6 SWAP2 SWAP1 PUSH2 0x25C JUMP JUMPDEST SWAP3 POP POP DUP2 SWAP1 SSTORE POP POP POP JUMP JUMPDEST PUSH1 0x0 DUP1 SLOAD SWAP1 POP SWAP1 JUMP JUMPDEST DUP1 PUSH1 0x0 DUP2 SWAP1 SSTORE POP PUSH1 0x0 SLOAD PUSH1 0x1 PUSH1 0x0 ADD DUP2 SWAP1 SSTORE POP POP JUMP JUMPDEST PUSH1 0x1 DUP1 PUSH1 0x0 ADD SLOAD SWAP1 DUP1 PUSH1 0x1 ADD SLOAD SWAP1 POP DUP3 JUMP JUMPDEST PUSH1 0x0 DUP1 REVERT JUMPDEST PUSH1 0x0 DUP2 SWAP1 POP SWAP2 SWAP1 POP JUMP JUMPDEST PUSH2 0x14A DUP2 PUSH2 0x137 JUMP JUMPDEST DUP2 EQ PUSH2 0x155 JUMPI PUSH1 0x0 DUP1 REVERT JUMPDEST POP JUMP JUMPDEST PUSH1 0x0 DUP2 CALLDATALOAD SWAP1 POP PUSH2 0x167 DUP2 PUSH2 0x141 JUMP JUMPDEST SWAP3 SWAP2 POP POP JUMP JUMPDEST PUSH1 0x0 DUP1 PUSH1 0x40 DUP4 DUP6 SUB SLT ISZERO PUSH2 0x184 JUMPI PUSH2 0x183 PUSH2 0x132 JUMP JUMPDEST JUMPDEST PUSH1 0x0 PUSH2 0x192 DUP6 DUP3 DUP7 ADD PUSH2 0x158 JUMP JUMPDEST SWAP3 POP POP PUSH1 0x20 PUSH2 0x1A3 DUP6 DUP3 DUP7 ADD PUSH2 0x158 JUMP JUMPDEST SWAP2 POP POP SWAP3 POP SWAP3 SWAP1 POP JUMP JUMPDEST PUSH2 0x1B6 DUP2 PUSH2 0x137 JUMP JUMPDEST DUP3 MSTORE POP POP JUMP JUMPDEST PUSH1 0x0 PUSH1 0x20 DUP3 ADD SWAP1 POP PUSH2 0x1D1 PUSH1 0x0 DUP4 ADD DUP5 PUSH2 0x1AD JUMP JUMPDEST SWAP3 SWAP2 POP POP JUMP JUMPDEST PUSH1 0x0 PUSH1 0x20 DUP3 DUP5 SUB SLT ISZERO PUSH2 0x1ED JUMPI PUSH2 0x1EC PUSH2 0x132 JUMP JUMPDEST JUMPDEST PUSH1 0x0 PUSH2 0x1FB DUP5 DUP3 DUP6 ADD PUSH2 0x158 JUMP JUMPDEST SWAP2 POP POP SWAP3 SWAP2 POP POP JUMP JUMPDEST PUSH1 0x0 PUSH1 0x40 DUP3 ADD SWAP1 POP PUSH2 0x219 PUSH1 0x0 DUP4 ADD DUP6 PUSH2 0x1AD JUMP JUMPDEST PUSH2 0x226 PUSH1 0x20 DUP4 ADD DUP5 PUSH2 0x1AD JUMP JUMPDEST SWAP4 SWAP3 POP POP POP JUMP JUMPDEST PUSH32 0x4E487B7100000000000000000000000000000000000000000000000000000000 PUSH1 0x0 MSTORE PUSH1 0x11 PUSH1 0x4 MSTORE PUSH1 0x24 PUSH1 0x0 REVERT JUMPDEST PUSH1 0x0 PUSH2 0x267 DUP3 PUSH2 0x137 JUMP JUMPDEST SWAP2 POP PUSH2 0x272 DUP4 PUSH2 0x137 JUMP JUMPDEST SWAP3 POP DUP3 DUP3 ADD SWAP1 POP DUP1 DUP3 GT ISZERO PUSH2 0x28A JUMPI PUSH2 0x289 PUSH2 0x22D JUMP JUMPDEST JUMPDEST SWAP3 SWAP2 POP POP JUMP INVALID LOG2 PUSH5 0x6970667358 0x22 SLT KECCAK256 0xC2 KECCAK256 0xE1 0x4F PUSH3 0x248465 PUSH13 0xAB06F783EA19DA3F0F29529B4F SWAP16 0x4C SWAP12 PUSH10 0xF5541F31447364736F6C PUSH4 0x43000813 STOP CALLER "},"methodIdentifiers":{"getter()":"993a04b7","initialvalue(uint256)":"b353bf4c","newInput()":"f9ad0dcc","setter(uint256,uint256)":"5298f36d"}},"storageLayout":{"storage":[{"astId":2,"contract":"contracts/Task2.sol:A2","label":"value","offset":0,"slot":"0","type":"t_uint256"},{"astId":10,"contract":"contracts/Task2.sol:A2","label":"newInput","offset":0,"slot":"1","type":"t_struct(input)7_storage"}],"types":{"t_struct(input)7_storage":{"encoding":"inplace","label":"struct A2.input","members":[{"astId":4,"contract":"contracts/Task2.sol:A2","label":"myIntA","offset":0,"slot":"0","type":"t_uint256"},{"astId":6,"contract":"contracts/Task2.sol:A2","label":"myIntB","offset":0,"slot":"1","type":"t_uint256"}],"numberOfBytes":"64"},"t_uint256":{"encoding":"inplace","label":"uint256","numberOfBytes":"32"}}}}}}